:100000000C9464000C9455090C9482090C948C0097
:100010000C948C000C948C000C948C000C948C0030
:100020000C948C000C94EC000C948C000C94520CEE
:100030000C948C000C948C000C948C000C948C0010
:100040000C94F8090C948C000C94BB060C94F606E6
:100050000C948C000C948C000C948C000C948C00F0
:100060000C948C000C948C000000000024002700ED
:100070002A0000000000250028002B0000000000DE
:1000800023002600290004040404040404040202DA
:100090000202020203030303030301020408102007
:1000A0004080010204081020010204081020000012
:1000B0000007000201000003040600000000000029
:1000C0000000DB073108100D11241FBECFEFD8E070
:1000D000DEBFCDBF12E0A0E0B1E0E2E3F1E202C09A
:1000E00005900D92A63FB107D9F714E0A6EFB2E054
:1000F00001C01D92A939B107E1F710E0C8ECD0E0CA
:1001000004C02297FE010E949310C23CD107C9F798
:100110000E948E000C9497100C9400000E94400ADC
:100120000E942B0383E88093B200809170008E7F41
:10013000809370008091B0008C7F8093B00080919C
:10014000B100877F8093B1008091B1008660809379
:10015000B1008091B1008E7F8093B10080917000DA
:10016000816080937000E091DD02F091DE02808179
:100170009181892BE1F30E942A03F89480E090E0BA
:1001800008952091F9022F5F2093F902215049F040
:1001900081E090E09093F8028093F7022093F902B7
:1001A000089578940E946B040E94EE02F894809166
:1001B000F90281508093F9029091FC02992359F041
:1001C0008091FA02882339F47894F89491509093AE
:1001D000FC021092FA0208951F920F920FB60F922E
:1001E00011242F933F934F935F936F937F938F933C
:1001F0009F93AF93BF93EF93FF9383E88093B200F5
:100200008091F6028F5F8093F6028091F60285302E
:1002100021F41092F6020E94C100FF91EF91BF916C
:10022000AF919F918F917F916F915F914F913F918E
:100230002F910F900FBE0F901F90189560E070E007
:1002400080E89FE7089560E070E080E89FE7089508
:1002500060E070E080E89FEF089560E070E080E883
:100260009FEF089560E070E080EC9FEF089560E0FC
:1002700070E080EC9FEF0895DF92EF92FF920F9372
:100280001F937B018C012091F1033091F203409187
:10029000F3035091F4030E94AE0D882379F0DD241E
:1002A000C801B7012091F9033091FA034091FB0393
:1002B0005091FC030E94AE0D882311F4DD24D394E9
:1002C0008D2D1F910F91FF90EF90DF9008951F9358
:1002D0009B01AC0110E00E94AE0D811111E0812F55
:1002E0001F9108950E9432016093F5037093F60305
:1002F0008093F7039093F8030E9437016093E9031A
:100300007093EA038093EB039093EC030E941E0129
:100310006093F1037093F2038093F3039093F403DB
:100320000E9423016093ED037093EE038093EF032B
:100330009093F0030E9428016093F9037093FA03ED
:100340008093FB039093FC030E942D016093FD03B7
:100350007093FE038093FF039093000408952F92FF
:100360003F924F925F926F927F928F929F92AF9245
:10037000BF92CF92DF92EF92FF920F931F93DF9382
:10038000CF93CDB7DEB72A970FB6F894DEBF0FBE76
:10039000CDBF6D837E838F8398871A013A87298723
:1003A00037014801DA01AD90BD90CD90DC90A601F7
:1003B00095010E94AE0D1816FCF06D817E818F8133
:1003C0009885A60195010E94360D7B018C01F101F3
:1003D0006481758186819781A60195010E94360D01
:1003E0009B01AC01C801B7010E94B20D5B016C0119
:1003F000442455243201B1C067019701220F331FF5
:10040000220F331F220D331DD9018D919D910D9027
:10041000BC91A02D89839A83AB83BC836D817E813F
:100420008F81988529813A814B815C810E94AE0D34
:1004300088230CF062C016950795F794E794640141
:10044000530144245524320122C0F701EE0FFF1F4F
:10045000EE0FFF1FE20DF31D6D817E818F81988568
:1004600020813181428153810E94AE0D87FD03C0FE
:100470002701380102C05701680183017201EA0CAB
:10048000FB1C0C1D1D1D16950795F794E794D601CE
:10049000C50184199509A609B7090297A105B105F7
:1004A000A0F68201F201EE0FFF1FEE0FFF1FE20D1B
:1004B000F31DC080D180E280F3806D817E818F81C9
:1004C0009885A70196010E94360D4B015C010F5FD4
:1004D0001F4F000F111F000F111F020D131DF801F8
:1004E0006081718182819381A70196010E94360DFE
:1004F0009B01AC01C501B4012CC02701380108944F
:1005000041085108610871088FEF9FE3C80ED91E9A
:10051000CC0CDD1CCC0CDD1CC20CD31CD601ED9028
:10052000FD900D911C916D817E818F819885A80130
:1005300097010E94360D5B016C0169817A818B8184
:100540009C81A80197010E94360D9B01AC01C60158
:10055000B5010E94B20D5B016C01D2019201220F24
:10056000331F220F331FE985FA852E0F3F1FF90134
:10057000E080F180028113811196AA0FBB1FAA0FA0
:10058000BB1F89859A85A80FB91F6D917D918D91AB
:100590009C91A80197010E94360DA60195010E9429
:1005A0009F0FA80197010E94370D2A960FB6F89465
:1005B000DEBF0FBECDBFCF91DF911F910F91FF9096
:1005C000EF90DF90CF90BF90AF909F908F907F90F3
:1005D0006F905F904F903F902F900895EF92FF9211
:1005E0000F931F930CE814E0E0908C04F0908D04BE
:1005F000F8013E9760817181828193816F5F7F4FA7
:100600008F4F9F4F60837183828393830E94460E36
:100610002091820430918304409184045091850498
:100620000E949F0FF701608371838283938306503A
:100630001040F80180819181A281B3810196A11DB2
:10064000B11D80839183A283B3831F910F91FF908B
:10065000EF900895089584E090E00E947201E1E037
:10066000F4E085E9DF011D928A95E9F78AE894E0D4
:1006700090930604809305048CE894E097AF86AFCE
:1006800082E894E09093140480931304F0936A0436
:10069000E0936904F0930404E093030481E090E0A4
:1006A00090938B0480938A0480E091E090930A04F5
:1006B000809309048EE894E090938D0480938C04D9
:1006C0008AE097EDA3E2BCE38093820490938304D5
:1006D000A0938404B093850483E0E6E9F4E0DF01AD
:1006E0001D928A95E9F78091DA026091BE010E941D
:1006F0002C0D8091DB026091C2010E942C0D809133
:10070000DC026091C6010E942C0D0895EF92FF92C9
:100710000F931F937B018C019F7720E030E040E82E
:1007200059E50E94AE0D87FD03C0B701C80132C074
:10073000C801B70120E030E040E05FE30E949B0F7A
:1007400088235CF0C801B70120E030E040E05FE3BF
:100750000E94370D0E94830E1DC0C801B70120E022
:1007600030E040E05FEB0E949B0F18164CF4C8018C
:10077000B70120E030E040E050E00E949F0F0AC047
:10078000C801B70120E030E040E05FE30E94360D91
:100790000E949B0D1F910F91FF90EF9008952F9253
:1007A0003F924F925F926F927F928F929F92AF9201
:1007B000BF92CF92DF92EF92FF920F931F931B0194
:1007C0002C0139014A010E946701882391F4C2017A
:1007D000B1010E943C01882361F4C401B3010E946D
:1007E0006701882331F4C401B3010E943C018823CE
:1007F00049F06091F5037091F6038091F7039091B1
:10080000F80358C0C401B30120E030E040E050E0FC
:100810000E94AE0D88232CF4C401B3010E949B0DED
:1008200004C0C401B3010E94830E7B018C01C4018A
:10083000B30120E030E040E050E00E94AE0D88239C
:1008400099F1C401B301A80197010E94AE0D88235C
:1008500059F1C201B101A40193010E94B20D7B01C3
:100860008C010E9486039B01AC01C801B7010E9464
:10087000360D5B016C01E894D7F8E89417F9C801CC
:10088000B70120E030E040E054E30E949F0F9B015D
:10089000AC01C601B5010E94AE0D18162CF060E047
:1008A00070E080E090E006C0C201B101A4019301B4
:1008B0000E949D0E1F910F91FF90EF90DF90CF90BF
:1008C000BF90AF909F908F907F906F905F904F9070
:1008D0003F902F9008952F923F924F925F926F9288
:1008E0007F928F929F92AF92BF92CF92DF92EF92C0
:1008F000FF920F931F93DF93CF93CDB7DEB7289767
:100900000FB6F894DEBF0FBECDBFE0918C04F0911E
:100910008D0420803180428053802091DA01309113
:10092000DB014091DC015091DD01C201B1010E9467
:10093000CF034EED51E022E131E0B3E0EB2EF12C9C
:10094000012D112D0E94AF0169837A838B839C83D3
:10095000E0918C04F0918D0460817181828193819A
:100960002091EE013091EF014091F0015091F101A1
:100970000E94CF0342EF51E022E231E00E94AF013A
:100980006D837E838F839887E0918C04F0918D0432
:1009900060817181828193812091060230910702EA
:1009A00040910802509109020E94CF034AE052E0B0
:1009B00022E331E0A0E1EA2EF12C012D112D0E945D
:1009C000AF015B016C01E0918C04F0918D046081BA
:1009D00071818281938120914E0230914F0240912A
:1009E0005002509151020E94CF0342E552E026E7A7
:1009F00031E0F1E1EF2EF12C012D112D0E94AF011C
:100A00003B014C01C201B10120919E0230919F0235
:100A10004091A0025091A1020E949B0F1816CCF4A5
:100A2000A090CE01B090CF01C090D001D090D10164
:100A30006090D2017090D3018090D4019090D50144
:100A40002090D6013090D7014090D8015090D90124
:100A50002FC0C201B1012091CA013091CB01409158
:100A6000CC015091CD010E949B0F1816CCF4209020
:100A70000202309003024090040250900502298146
:100A80003A814B815C81C901DA015C016D012D81E4
:100A90003E814F815885C901DA013C014D0108C0F2
:100AA00020909A0230909B0240909C0250909D02B0
:100AB0001091A2020091A302F090A402E090A5027E
:100AC000C601B501212F302F4F2D5E2D0E949B0FA7
:100AD000181694F01091A6020091A702F090A802B7
:100AE000E090A902C601B501212F302F4F2D5E2DB8
:100AF0000E94AE0D882334F4812F902FAF2DBE2D90
:100B00005C016D01C601B50190582091AA02309197
:100B1000AB024091AC025091AD020E949F0F209118
:100B2000AE023091AF024091B0025091B1020E94EA
:100B3000370D7B018C0120E030E040E853E40E9457
:100B4000AE0D8823A4F4C801B70120E030E040E0F6
:100B500050E00E949B0F88233CF0C801B7010E941F
:100B60001A0E6093960406C01092960403C08FEF8D
:100B7000809396048091DA02609196040E94220D7F
:100B80001091B2020091B302F090B402E090B5026D
:100B9000C401B301212F302F4F2D5E2D0E949B0FDA
:100BA000181694F01091B6020091B702F090B802B6
:100BB000E090B902C401B301212F302F4F2D5E2DDB
:100BC0000E94AE0D882334F4812F902FAF2DBE2DBF
:100BD0003C014D01C401B3012091BA023091BB0226
:100BE0004091BC025091BD020E949F0F2091BE0215
:100BF0003091BF024091C0025091C1020E949F0FEC
:100C00002091C2023091C3024091C4025091C502AA
:100C10000E94370D7B018C0120E030E040E853E476
:100C20000E94AE0D8823A4F4C801B70120E030E093
:100C300040E050E00E949B0F88233CF0C801B701C0
:100C40000E941A0E6093970406C01092970403C086
:100C50008FEF809397048091DB02609197040E944C
:100C6000220D1091C6020091C702F090C802E090D8
:100C7000C902C201B101212F302F4F2D5E2D0E94DC
:100C80009B0F181694F01091CA020091CB02F090BD
:100C9000CC02E090CD02C201B101212F302F4F2DA7
:100CA0005E2D0E94AE0D882334F4812F902FAF2D3E
:100CB000BE2D1C012D01C201B1012091CE02309147
:100CC000CF024091D0025091D1020E949F0F2091FB
:100CD000D2023091D3024091D4025091D5020E94A9
:100CE0009F0F2091D6023091D7024091D8025091A7
:100CF000D9020E94370D7B018C0120E030E040E8F2
:100D000053E40E94AE0D8823A4F4C801B70120E08B
:100D100030E040E050E00E949B0F88233CF0C80187
:100D2000B7010E941A0E6093980406C010929804AE
:100D300003C08FEF809398048091DC026091980447
:100D40000E94220D28960FB6F894DEBF0FBECDBFCD
:100D5000CF91DF911F910F91FF90EF90DF90CF9097
:100D6000BF90AF909F908F907F906F905F904F90CB
:100D70003F902F9008951F920F920FB60F9211245B
:100D80002F933F934F938F939F93EF93FF93809174
:100D9000C00082FD1DC04091C60020913D033091EE
:100DA0003E032F5F3F4F2F73307080913F03909130
:100DB00040032817390771F0E0913D03F0913E039D
:100DC000E350FD4F408330933E0320933D0302C028
:100DD0008091C600FF91EF919F918F914F913F912C
:100DE0002F910F900FBE0F901F9018951F920F928A
:100DF0000FB60F9211242F933F938F939F93EF93EE
:100E0000FF9320918103309182038091830390911D
:100E100084032817390731F48091C1008F7D8093B6
:100E2000C10014C0E0918303F0918403EF5BFC4F99
:100E30002081809183039091840301968F73907039
:100E400090938403809383032093C600FF91EF91D6
:100E50009F918F913F912F910F900FBE0F901F90F8
:100E60001895DC011C96ED91FC911D97E05CFF4FFD
:100E70002191319180819181281B390B2F73307022
:100E8000C9010895DC011C96ED91FC911D97E05C71
:100E9000FF4F20813181E054F040DF01AE5BBF4F56
:100EA0008D919C9111972817390719F42FEF3FEF77
:100EB00007C08D919C91E80FF91F8081282F30E0A9
:100EC000C9010895DC011C96ED91FC911D97E05C31
:100ED000FF4F20813181E054F040DF01AE5BBF4F16
:100EE0008D919C9111972817390719F42FEF3FEF37
:100EF00010C08D919C911197E80FF91F20818D9161
:100F00009C91119701968F73907011969C938E937C
:100F100030E0C9010895DC0191968C919197882366
:100F200039F05496ED91FC915597808186FFF9CF69
:100F300091961C920895CF93DF93EC01EE85FF8587
:100F4000E05CFF4F20813181E054F0402F5F3F4F44
:100F50002F733070DF01AE5BBF4F8D919C91119765
:100F600028173907D1F3E05CFF4F80819181E0546D
:100F7000F040E80FF91F6083EE85FF85E05CFF4FCE
:100F800031832083EE89FF89208181E090E00F8CFE
:100F900002C0880F991F0A94E2F7282B208381E072
:100FA00089A3EC89FD8980818064808381E090E061
:100FB000DF91CF910895109288031092870388EEF5
:100FC00093E0A0E0B0E08093890390938A03A0931C
:100FD0008B03B0938C0383EE92E09093860380930F
:100FE00085038DEF92E0909392038093910381E4C7
:100FF00093E0909394038093930385EC90E0909317
:1010000096038093950384EC90E0909398038093EB
:10101000970380EC90E090939A038093990381EC7E
:1010200090E090939C0380939B0382EC90E09093DC
:101030009E0380939D0386EC90E09093A0038093A1
:101040009F0384E08093A10383E08093A20387E061
:101050008093A30385E08093A40381E08093A5039C
:10106000089583EF92E09093A8038093A7031092D2
:10107000A9031092AA031092AB031092AC03089537
:101080008F929F92AF92BF92CF92DF92EF92FF9298
:101090000F931F93CF93DF934C016B017C01AA2424
:1010A000BB24C0E0D0E0C601F70162814AE050E015
:1010B0000E9443098C01C6016EE20E94AC08080F31
:1010C000191FA00EB11E21960894E11CF11CC3301B
:1010D000D10549F7C601F40165814AE050E00E945C
:1010E00043099501280F391FC901DF91CF911F9145
:1010F0000F91FF90EF90DF90CF90BF90AF909F90B7
:101100008F900895CF92DF92EF92FF920F931F93EB
:10111000CF93DF937C016B018A01C0E0D0E00FC068
:10112000D6016D916D01D701ED91FC910190F08197
:10113000E02DC7010995C80FD91F015010400115B6
:10114000110571F7CE01DF91CF911F910F91FF90A3
:10115000EF90DF90CF900895DC01ED91FC9101902C
:10116000F081E02D09950895CF93DF93EC0161158F
:10117000710519F420E030E00FC0DB010D90002074
:10118000E9F71197A61BB70BE881F9810280F3817B
:10119000E02DAD0109959C01C901DF91CF91089522
:1011A0004F925F927F928F929F92AF92BF92CF9217
:1011B000DF92EF92FF920F931F93DF93CF93CDB700
:1011C000DEB7A1970FB6F894DEBF0FBECDBF2C01DE
:1011D000742ECB01223008F42AE019A231E2C32E8A
:1011E000D12CCC0EDD1E822E9924AA24BB24672D7F
:1011F000752FA50194010E94401079018A01C80150
:10120000B701A50194010E940210472D461B0894C6
:10121000C108D1084A3014F4405D01C0495CF601B0
:101220004083E114F1040105110521F07E2C5F2DAE
:10123000C801DDCFC201B6010E94B408A1960FB665
:10124000F894DEBF0FBECDBFCF91DF911F910F91FC
:10125000FF90EF90DF90CF90BF90AF909F908F90D6
:101260007F905F904F900895DC012115310541F486
:10127000ED91FC910190F081E02D642F0995089586
:101280000E94D0080895EF92FF920F931F939A0146
:10129000E62EFF2400E010E0B801A7010E94340907
:1012A0001F910F91FF90EF9008951F920F920FB62C
:1012B0000F9211242F933F934F935F936F937F93DC
:1012C0008F939F93AF93BF93EF93FF938091AD0361
:1012D0009091AE03892B29F0E091AD03F091AE031C
:1012E0000995FF91EF91BF91AF919F918F917F9160
:1012F0006F915F914F913F912F910F900FBE0F9083
:101300001F9018951F920F920FB60F9211242F93D2
:101310003F934F935F936F937F938F939F93AF937D
:10132000BF93EF93FF938091AF039091B003892B0C
:1013300029F0E091AF03F091B0030995FF91EF918F
:10134000BF91AF919F918F917F916F915F914F91DD
:101350003F912F910F900FBE0F901F9018952F92D5
:101360003F924F925F926F927F928F929F92AF9235
:10137000BF92CF92DF92EF92FF920F931F93DF9372
:10138000CF93CDB7DEB73B014C0119012A016D891E
:101390007E898F89988D6A197B098C099D09621A4B
:1013A000730A840A950AA40193010E940210E218AC
:1013B000F30804091509A80197010E9462102A0D7B
:1013C0003B1D4C1D5D1DB901CA01CF91DF911F91DD
:1013D0000F91FF90EF90DF90CF90BF90AF909F90D4
:1013E0008F907F906F905F904F903F902F900895D7
:1013F0001F920F920FB60F9211242F933F938F934A
:101400009F93AF93BF938091B5039091B603A09142
:10141000B703B091B8033091B9030196A11DB11D76
:10142000232F2D5F2D3720F02D570196A11DB11DC3
:101430002093B9038093B5039093B603A093B703A9
:10144000B093B8038091B1039091B203A091B3031C
:10145000B091B4030196A11DB11D8093B103909387
:10146000B203A093B303B093B403BF91AF919F9124
:101470008F913F912F910F900FBE0F901F90189555
:10148000789484B5826084BD84B5816084BD85B55F
:10149000826085BD85B5816085BDEEE6F0E0808126
:1014A00081608083E1E8F0E0108280818260808347
:1014B000808181608083E0E8F0E0808181608083CA
:1014C000E1EBF0E0808184608083E0EBF0E08081FC
:1014D00081608083EAE7F0E080818460808380819E
:1014E0008260808380818160808380818068808346
:1014F0001092C1000895CF93DF93482F50E0CA01A6
:1015000086569F4FFC0134914A575F4FFA018491F0
:10151000882369F190E0880F991FFC01E859FF4F7B
:10152000A591B491FC01EE58FF4FC591D49166236B
:1015300051F42FB7F8948C91932F909589238C9325
:10154000888189230BC0623061F42FB7F8948C91A5
:10155000932F909589238C938881832B88832FBF29
:1015600006C09FB7F8948C91832B8C939FBFDF911B
:10157000CF910895482F50E0CA0182559F4FFC013A
:101580002491CA0186569F4FFC0194914A575F4FA0
:10159000FA013491332309F440C0222351F123305E
:1015A00071F0243028F42130A1F0223011F514C05C
:1015B0002630B1F02730C1F02430D9F404C0809136
:1015C00080008F7703C0809180008F7D80938000A2
:1015D00010C084B58F7702C084B58F7D84BD09C0EB
:1015E0008091B0008F7703C08091B0008F7D809391
:1015F000B000E32FF0E0EE0FFF1FEE58FF4FA59174
:10160000B4912FB7F894662321F48C919095892397
:1016100002C08C91892B8C932FBF0895FC0180917F
:10162000BA038C3090F480838F5F8093BA0381502B
:1016300090E0FC01EE0FFF1FE80FF91FE554FC4F8F
:1016400088EB9BE09283818308958FEF80830895D8
:10165000FC0120812C30B8F58181992787FD909578
:1016600048E850E0481B590B440F551F440F551FC5
:101670006417750784F08281992787FD909548E566
:1016800052E0481B590B440F551F440F551F641758
:1016900075070CF4AB0142505040CA01AA2797FDD0
:1016A000A095BA2F880F991FAA1FBB1F4FB7F89498
:1016B00030E0F901EE0FFF1FE20FF31FE554FC4F7E
:1016C000928381834FBF0895AF92BF92CF92DF92F2
:1016D000EF92FF920F931F93CF93DF93EC019B0147
:1016E00082E0603278070CF048C077FF03C020E04A
:1016F00030E005C0653B710514F024EB30E000D00C
:1017000000D0B901882777FD8095982F298133274C
:1017100027FD3095E8E8AE2EB12CA21AB30AAA0C28
:10172000BB1CAA0CBB1CCC24B7FCC094DC2CEA81EB
:10173000FF27E7FDF09528E532E02E1B3F0B220F37
:10174000331F220F331F442737FD4095542FEDB729
:10175000FEB7218332834383548320E030E040E0AE
:1017600050E004EBE02EF12C012D112D0E94AF0969
:101770009B010F900F900F900F90CE01B9010E9426
:10178000280BDF91CF911F910F91FF90EF90DF9089
:10179000CF90BF90AF900895CF92DF92EF92FF92DB
:1017A0001F93CF93DF93EC01162F7A016901888193
:1017B0008C3008F064C0862F61E00E947B0A88812B
:1017C00090E0FC01EE0FFF1FE80FF91FE554FC4FFE
:1017D0001F738081807C812B808380E292E08E1950
:1017E0009F0964E070E00E942D10698380E699E013
:1017F0008C199D0964E070E00E942D106A83A88115
:101800008A2F6CE00E942110682F70E0AB01440F1A
:10181000551F460F571F440F551F440F551F20E0FB
:1018200030E0C901840F951FFC01EE0FFF1FE80F88
:10183000F91FE554FC4F808186FD15C02F5F3F4F97
:101840002C30310571F724C01092800082E0809323
:1018500081001092850010928400B19A80916F00EF
:10186000826080936F008A2F90E0FC01EE0FFF1FD3
:10187000E80FF91FE554FC4F8081806480838881E4
:10188000DF91CF911F91FF90EF90DF90CF9008955F
:10189000672BD1F2E8CF40E252E020E639E00E9427
:1018A000CC0B08951F920F920FB60F9211242F9315
:1018B0003F934F935F936F937F938F939F93AF93D8
:1018C000BF93EF93FF938091DF0387FF05C01092D2
:1018D0008500109284002BC02091DF03332727FD61
:1018E00030958091BA0390E02817390704F580916C
:1018F000DF03992787FD9095FC01EE0FFF1FE80F8E
:10190000F91FE554FC4F808186FF11C08091DF03F1
:10191000992787FD9095FC01EE0FFF1FE80FF91F37
:10192000E554FC4F80818F7360E00E94BA0A809179
:10193000DF038F5F8093DF032091DF03332727FDD1
:1019400030958091BA0390E0281739070CF04EC00B
:101950008091DF038C300CF049C0209184003091DD
:1019600085008091DF03992787FD9095FC01EE0F9C
:10197000FF1FE80FF91FE554FC4F81819281280F6A
:10198000391F30938900209388008091DF039927C5
:1019900087FD9095FC01EE0FFF1FE80FF91FE5543E
:1019A000FC4F808186FF2BC08091DF03992787FD44
:1019B0009095FC01EE0FFF1FE80FF91FE554FC4F57
:1019C00080818F7361E00E94BA0A19C080E49CE9AB
:1019D00005C08091840090918500049690938900C1
:1019E000809388008FEF8093DF0309C0809184008B
:1019F00090918500049680549C4940F3EACFFF9172
:101A0000EF91BF91AF919F918F917F916F915F9176
:101A10004F913F912F910F900FBE0F901F901895EF
:101A20000F931F9300EE13E0C8010E940E0BC80134
:101A300003960E940E0BC80106960E940E0B1F9182
:101A40000F91089593E0899FC001112480529C4F0B
:101A500070E00E94640B089593E0899FC0011124F7
:101A600080529C4F70E00E944B0C08955058BB2749
:101A7000AA270ED00FC200D230F005D220F031F4E8
:101A80009F3F11F41EF4F5C10EF4E095E7FBC0C1D1
:101A9000E92F11D280F3BA176207730784079507FD
:101AA00018F071F49EF540C20EF4E0950B2EBA2F9B
:101AB000A02D0B01B90190010C01CA01A001112454
:101AC000FF27591B99F0593F50F4503E68F11A1600
:101AD000F040A22F232F342F4427585FF3CF469591
:101AE00037952795A795F0405395C9F77EF41F16B3
:101AF000BA0B620B730B840BBAF09150A1F0FF0F7D
:101B0000BB1F661F771F881FC2F70EC0BA0F621F68
:101B1000731F841F48F4879577956795B795F79558
:101B20009E3F08F0B3CF9395880F08F09927EE0FEA
:101B3000979587950895E1D180F09F3740F49111F2
:101B40000EF4F3C160E070E080E89FE3089526F0B2
:101B50001B16611D711D811D61C17BC135D108F44A
:101B600081E008950CD096C18ED140F085D130F03F
:101B700021F45F3F19F04CC15111D7C17AC19BD1FB
:101B800098F39923C9F35523B1F3951B550BBB2744
:101B9000AA2762177307840738F09F5F5F4F220FF1
:101BA000331F441FAA1FA9F333D00E2E3AF0E0E8EA
:101BB00030D091505040E695001CCAF729D0FE2F36
:101BC00027D0660F771F881FBB1F261737074807C8
:101BD000AB07B0E809F0BB0B802DBF01FF2793587E
:101BE0005F4F2AF09E3F510568F012C19EC15F3FD2
:101BF000ECF3983EDCF3869577956795B795F79566
:101C00009F5FC9F7880F911D9695879597F908955D
:101C1000E1E0660F771F881FBB1F621773078407F9
:101C2000BA0720F0621B730B840BBA0BEE1F88F708
:101C3000E095089548D188F09F5790F0B92F9927E3
:101C4000B751A0F0D1F0660F771F881F991F1AF0C7
:101C5000BA95C9F712C0B13081F066D1B1E00895EC
:101C600063C1672F782F8827B85F39F0B93FCCF36D
:101C7000869577956795B395D9F73EF490958095BD
:101C8000709561957F4F8F4F9F4F0895E89409C0DD
:101C900097FB3EF490958095709561957F4F8F4F9F
:101CA0009F4F9923A9F0F92F96E9BB279395F695B5
:101CB000879577956795B795F111F8CFFAF4BB0F33
:101CC00011F460FF1BC06F5F7F4F8F4F9F4F16C097
:101CD000882311F096E911C0772321F09EE8872F21
:101CE000762F05C0662371F096E8862F70E060E0DD
:101CF0002AF09A95660F771F881FDAF7880F969556
:101D0000879597F90895F9D080F09F3740F49111A5
:101D10000EF00BC160E070E080E89FEB089526F4C0
:101D20001B16611D711D811D79C093C0A5D018F0CF
:101D300011F0A9D038F49DC0F8C0E92FBCD0B0F3A1
:101D40005523C9F3E7FB6217730784079507A8F1CA
:101D500099F3E92FFF2788232AF03197660F771F21
:101D6000881FDAF7952F5527442332F091505040C1
:101D7000220F331F441FD2F7BB27E91BF50B621B51
:101D8000730B840BB109C1F222F4620F731F841F1D
:101D9000B11D31972AF0660F771F881FBB1FEFCF49
:101DA000915050405AF041F0882332F0660F771F6F
:101DB000881F91505040C1F793954BC086957795F9
:101DC00067959F5FD9F7F8CF990F0008550FAA0BB9
:101DD000E0E8FEEF16161706E807F907C0F012163E
:101DE0001306E407F50798F0621B730B840B950B41
:101DF00039F40A2661F0232B242B252B21F4089596
:101E00000A2609F4A140A6958FEF811D811D089532
:101E100097F99F6780E870E060E00895882371F487
:101E2000772321F09850872B762F07C0662311F473
:101E300099270DC09051862B70E060E02AF09A95AA
:101E4000660F771F881FDAF7880F9695879597F9A1
:101E500008959F3F49F0915028F4869577956795AE
:101E6000B7959F5F80389F4F880F9695879597F914
:101E700008959FEF80EC089500240A941616170623
:101E800018060906089500240A941216130614066B
:101E900005060895092E0394000C11F4882352F0CE
:101EA000BB0F40F4BF2B11F460FF04C06F5F7F4F86
:101EB0008F4F9F4F089557FD9058440F551F59F06D
:101EC0005F3F71F04795880F97FB991F61F09F3F27
:101ED00079F087950895121613061406551FF2CF50
:101EE0004695F1DF08C0161617061806991FF1CFA0
:101EF00086957105610508940895E5DFA0F0BEE7B9
:101F0000B91788F4BB279F3860F41616B11D672FE8
:101F1000782F8827985FF7CF869577956795B11DBD
:101F200093959639C8F30895E894BB2766277727D9
:101F3000CB0197F9089548DF08F48FEF08950BD08F
:101F4000A9CF9ADF28F09FDF18F0952309F060CF22
:101F500090CF1124EACFAFDFA0F3959FD1F3950F77
:101F600050E0551F629FF001729FBB27F00DB11D1D
:101F7000639FAA27F00DB11DAA1F649F6627B00DAD
:101F8000A11D661F829F2227B00DA11D621F739F96
:101F9000B00DA11D621F839FA00D611D221F749FA4
:101FA0003327A00D611D231F849F600D211D822FEB
:101FB000762F6A2F11249F5750408AF0E1F0882332
:101FC0004AF0EE0FFF1FBB1F661F771F881F91503F
:101FD0005040A9F79E3F510570F01ACFA6CF5F3F42
:101FE000ECF3983EDCF3869577956795B795F79572
:101FF000E7959F5FC1F7FE2B880F911D96958795FA
:1020000097F90895629FD001739FF001829FE00DC0
:10201000F11D649FE00DF11D929FF00D839FF00D67
:10202000749FF00D659FF00D9927729FB00DE11D13
:10203000F91F639FB00DE11DF91FBD01CF011124F0
:102040000895991B79E004C0991F961708F0961B14
:10205000881F7A95C9F78095089597FB092E072662
:102060000AD077FD04D049D006D000201AF470952C
:1020700061957F4F0895F6F7909581959F4F08954C
:10208000A1E21A2EAA1BBB1BFD010DC0AA1FBB1F7C
:10209000EE1FFF1FA217B307E407F50720F0A21BEE
:1020A000B30BE40BF50B661F771F881F991F1A945B
:1020B00069F760957095809590959B01AC01BD0185
:1020C000CF01089597FB092E05260ED057FD04D0A9
:1020D000D7DF0AD0001C38F45095409530952195F3
:1020E0003F4F4F4F5F4F0895F6F79095809570954D
:1020F00061957F4F8F4F9F4F0895AA1BBB1B51E1E6
:1021000007C0AA1FBB1FA617B70710F0A61BB70B67
:10211000881F991F5A95A9F780959095BC01CD010C
:102120000895EE0FFF1F0590F491E02D0994F894A7
:02213000FFCFDF
:102132004669786564537465704469736372657443
:1021420065000000B4420000B4420000000000003C
:102152000000000034C3000034C30000000000008F
:1021620000000000B4C20000B4C2000034C200008B
:1021720034C20000000000000000000034420000F1
:1021820034420000B4420000B44200003442000075
:1021920034420000000000000000000034C20000D1
:1021A20034C20000B4C200003443000034430000D3
:1021B2000743000007430000B4420000B44200009D
:1021C2003442000034420000000000000000000021
:1021D20034C2000034C20000B4C20000B4C2000025
:1021E20007C3000007C3000034C3000034C3090062
:1021F20000000A0000000B000000000090420000F6
:10220200000000000000000000000000C8420000C2
:10221200000000009242000096420000C842000006
:10222200C8420000000000009242000096420000F6
:10223200C8420000000000008041000000000000D1
:10224200803F00000040000040400000804000004D
:10225200A0400000C0400000E0400000004100003B
:1022620010410000204100003041000040410000C8
:1022720050410000604100007041000080410000B8
:102282009042000000000000E04000000041000019
:102292007041000080410000B8410000C0410000D0
:1022A200F8410000004200001C42000020420000F1
:1022B2003C420000404200005C42000060420000DC
:1022C2007C420000804200009042000000000000BA
:1022D200A0420000B4420000B4C25555153F0000B0
:1022E200B44200003443000034C35555153F233E29
:1022F200013F0000B24200003443000034C3398E73
:10230200E33E4CAE203F0000B44200010201040053
:102312000000009B0782083107620742078B070013
:062322000000004008006D
:00000001FF
